:100000000C94E6000C9403010C9403010C9403017E
:100010000C9403010C9403010C9403010C94030150
:100020000C9403010C9403010C9403010C94030140
:100030000C9403010C9403010C9403010C94030130
:100040000C9403010C9403010C9403010C94030120
:100050000C9403010C9403010C9403010C94030110
:100060000C9403010C9403010C9403010C94030100
:100070000C9403010C9403010C9403010C940301F0
:100080000C9403010C9403010C940301BC01DE01E8
:10009000DC01BE01DC01DC01DC01C001DC01DC01B2
:1000A000DC01DC01DC01DC01DC01C201DC01DC0182
:1000B000DC01DC01DC01DC01DC01DC01DC01DC0158
:1000C000DC01DC01DC01DC01DC01C401DC01DC0160
:1000D000DC01DC01DC01DC01DC01DC01DC01DC0138
:1000E000DC01DC01DC01DC01DC01DC01DC01DC0128
:1000F000DC01DC01DC01DC01DC01DC01DC01DC0118
:10010000DC01DC01DC01DC01DC01DC01C601C80131
:10011000DC01CA01DC01DC01DC01CC01DC01DC0119
:10012000DC01DC01DC01DC01DC01CE01DC01DC01F5
:10013000DC01DC01DC01DC01DC01DC01DC01DC01D7
:10014000DC01DC01DC01DC01DC01DC01DC01DC01C7
:10015000DC01DC01DC01DC01DC01DC01DC01DC01B7
:10016000DC01DC01DC01DC01DC01DC01DC01DC01A7
:10017000DC01DC01DC01DC01DC01DC01DC01DC0197
:10018000DC01DC01DC01DC01DC01DC01D001D2019D
:10019000DC01D401DC01DC01DC01D601DC01DC0185
:1001A000DC01DC01DC01DC01DC01D801DC01DC016B
:1001B000DC01DC01DC01DC01DC01DC01DC01DC0157
:1001C000DC01DC01DC01DC01DC01DA0111241FBEF1
:1001D000CFEFD0E1DEBFCDBF11E0A0E0B1E0ECE4B5
:1001E000F7E002C005900D92A031B107D9F722E0E7
:1001F000A0E1B1E001C01D92A933B207E1F70E946E
:1002000016020C94A4030C9400008FB9779BFECFC8
:100210000895CF93C62F98B39E7F98BB0E94050187
:100220008C2F0E94050188B3816088BBCF9108950F
:100230001F93CF93DF9380913302882321F0109195
:100240003702107201C011E0809137028F5F8093F6
:10025000370280913202882369F0813011F460E026
:1002600001C068E08AE00E94090180913202815059
:1002700080933202D0E0C0E037C0C0FF08C0EC2F4E
:10028000E695F0E0EC5CFD4FE081EF7008C0EC2FEC
:10029000E695F0E0EC5CFD4FE081E295EF70E11156
:1002A00003C0C23021F402C0D1E001C0D1E0C130AE
:1002B00021F0C43021F460E803C060E801C060E0D0
:1002C000DD2361F0112351F0F0E0E050FF4F808119
:1002D000680F88E08C1B0E94090105C060E088E07F
:1002E0008C1B0E940901CF5FC63038F2E0913102C9
:1002F000F0E0E65FFE4F608182E00E940901E0913C
:100300001001F0E0E050FF4F608181E00E940901A0
:10031000DF91CF911F91089520E01EC038B380E196
:1003200090E0022E02C0880F991F0A94E2F7982FDE
:100330009095932398BB31E23A95F1F70000E0B332
:10034000E095EF7398B3892B88BB81E28A95F1F72A
:100350000000E11103C02F5F233000F3F0E030E430
:10036000239FE00DF11D11243197E03AF10520F5AE
:10037000EA5BFF4F0C949E0381E0089583E00895AB
:1003800080E0089580E8089580E9089584E0089564
:1003900085E0089586E0089580EA089580EB089549
:1003A00087E0089588E0089589E0089580EC089535
:1003B00080ED089580EE08958FEF089582E008950E
:1003C00080913802882381F01092380210926100E7
:1003D0001ABA14BA000081E0809365008FEF809311
:1003E00062008BBB85BB089581E08093380282E078
:1003F0008093650000008FEF809361008ABB84BB0F
:100400000895E199FECF9FBB8EBB6DBB8CB384601A
:100410008CBB8CB382608CBB0895E199FECF9FBBEF
:100420008EBB8CB381608CBB8DB3089510E01DC072
:10043000812F90E0EC01CC0FDD1FC80FD91FCE013A
:100440000E940D029E012F5E3E4F7901F9018083CB
:10045000CE0101960E940D02F7018183CE01029622
:100460000E940D02F70182831F5F103608F314BA51
:100470001ABA109261008FEF85BB8BBB809362002C
:1004800093E09093640091E090936500109238029D
:1004900011BA82BB87E787BB81E58DB988B38067D6
:1004A00088BB60E08FE00E94090160E089E00E9463
:1004B000090167E08BE00E94090160E08AE00E9488
:1004C000090161E08CE00E94090110923102109252
:1004D0001001109233021092320200E0809131023A
:1004E000C0911001F0E18F9FC00D1124D0E07E017A
:1004F000EE0CFF1CEC0EFD1E80913802882309F1E2
:1005000080913302882331F0E4E3F2E0B082C182CB
:10051000D28222C0FE01EE0FFF1FEC0FFD1FEF5E27
:10052000FE4F2081A4E3B2E02C93918111969C931D
:100530001197828112968C93209362009BBB85BB9E
:100540000BC080B1E4E3F2E08F73808389B38183D1
:1005500083B38283109233020E9418010E948C019F
:10056000182F0F3F09F0E2C0803160F5809133020F
:100570008130B9F48C2D82958F7020E1B29E800D70
:100580001124B82ED694D694D694D69430E1C39E36
:10059000D00C1124CD2CD12EDD0CDD0CDD0CDD0CAE
:1005A00011C0823029F48D2D807FD82ED12A0AC027
:1005B000B12CC12CD12EDD0CDD0CDD0CDD0C81E06D
:1005C00080933302103881F580913802882361F1DD
:1005D00080913302882369F0FE01EE0FFF1FEC0FBC
:1005E000FD1FEF5EFE4FB082C182D28210923302B5
:1005F0001BC0C7010E940D024E01880C991C94017A
:100600002C0F3D1FA9014F5E5E4F4A01FA01808306
:10061000C70101960E940D02F4018183C701029671
:100620000E940D02F4018283103911F40E94E0014E
:10063000103A89F480913302813021F482E0809372
:10064000330209C080913102882311F0815001C02A
:1006500085E080933102103B49F48091100188239A
:1006600011F0815001C08FE080931001103C79F4AB
:1006700080913302882319F01092330208C09091C0
:100680003102953011F081E0890F80933102103DE5
:1006900049F4809110018F3011F08F5F01C080E02C
:1006A00080931001103E09F041C080913802811101
:1006B00021C0E4E3F2E02081CE01880F991FC80F2A
:1006C000D91FCF5EDE4F28838181898382818A830F
:1006D0006881C7010E9401026981C70101960E94D9
:1006E00001026A81C70102960E94010288E080939C
:1006F00032021CC080913302811118C0CE01880FD4
:10070000991FC80FD91FCF5EDE4F6881C7010E94B5
:1007100001026981C70101960E9401026A81C70135
:1007200002960E94010288E08093320283ED90E3FA
:100730000197F1F700C00000012FD0CEEE0FFF1F90
:0C0740000590F491E02D0994F894FFCF8F
:10074C007E306D79335B5F707F7B771F4E3D4F47FB
:00000001FF
